{
  "_format": "hh-sol-artifact-1",
  "contractName": "WavePortal",
  "sourceName": "contracts/WavePortal.sol",
  "abi": [
    {
      "inputs": [],
      "stateMutability": "payable",
      "type": "constructor"
    },
    {
      "anonymous": false,
      "inputs": [
        {
          "indexed": false,
          "internalType": "enum WavePortal.Reaction",
          "name": "reaction",
          "type": "uint8"
        },
        {
          "indexed": false,
          "internalType": "string",
          "name": "message",
          "type": "string"
        },
        {
          "indexed": true,
          "internalType": "address",
          "name": "from",
          "type": "address"
        },
        {
          "indexed": false,
          "internalType": "uint256",
          "name": "timestamp",
          "type": "uint256"
        }
      ],
      "name": "NewWave",
      "type": "event"
    },
    {
      "inputs": [],
      "name": "getAllWaves",
      "outputs": [
        {
          "components": [
            {
              "internalType": "enum WavePortal.Reaction",
              "name": "reaction",
              "type": "uint8"
            },
            {
              "internalType": "string",
              "name": "message",
              "type": "string"
            },
            {
              "internalType": "address",
              "name": "waver",
              "type": "address"
            },
            {
              "internalType": "uint256",
              "name": "timestamp",
              "type": "uint256"
            }
          ],
          "internalType": "struct WavePortal.Wave[]",
          "name": "",
          "type": "tuple[]"
        }
      ],
      "stateMutability": "view",
      "type": "function"
    },
    {
      "inputs": [],
      "name": "getTotalWaves",
      "outputs": [
        {
          "internalType": "uint256",
          "name": "",
          "type": "uint256"
        }
      ],
      "stateMutability": "view",
      "type": "function"
    },
    {
      "inputs": [
        {
          "internalType": "address",
          "name": "",
          "type": "address"
        }
      ],
      "name": "lastWavedAt",
      "outputs": [
        {
          "internalType": "uint256",
          "name": "",
          "type": "uint256"
        }
      ],
      "stateMutability": "view",
      "type": "function"
    },
    {
      "inputs": [
        {
          "internalType": "enum WavePortal.Reaction",
          "name": "_reaction",
          "type": "uint8"
        },
        {
          "internalType": "string",
          "name": "_message",
          "type": "string"
        }
      ],
      "name": "wave",
      "outputs": [],
      "stateMutability": "nonpayable",
      "type": "function"
    },
    {
      "inputs": [
        {
          "internalType": "uint256",
          "name": "",
          "type": "uint256"
        }
      ],
      "name": "waveList",
      "outputs": [
        {
          "internalType": "enum WavePortal.Reaction",
          "name": "reaction",
          "type": "uint8"
        },
        {
          "internalType": "string",
          "name": "message",
          "type": "string"
        },
        {
          "internalType": "address",
          "name": "waver",
          "type": "address"
        },
        {
          "internalType": "uint256",
          "name": "timestamp",
          "type": "uint256"
        }
      ],
      "stateMutability": "view",
      "type": "function"
    }
  ],
  "bytecode": "0x60806040526112cc806100136000396000f3fe608060405234801561001057600080fd5b50600436106100575760003560e01c806348c29f141461005c5780638b9c3ecd146100785780639a2cdc08146100ab578063a42a4663146100c9578063bd43a908146100f9575b600080fd5b610076600480360381019061007191906109e1565b610117565b005b610092600480360381019061008d9190610a35565b61057c565b6040516100a29493929190610cd9565b60405180910390f35b6100b3610671565b6040516100c09190610dc3565b60405180910390f35b6100e360048036038101906100de91906109b8565b61067e565b6040516100f09190610dc3565b60405180910390f35b610101610696565b60405161010e9190610cb7565b60405180910390f35b42600f600360003373ffffffffffffffffffffffffffffffffffffffff1673ffffffffffffffffffffffffffffffffffffffff168152602001908152602001600020546101649190610ea5565b106101a4576040517f08c379a000000000000000000000000000000000000000000000000000000000815260040161019b90610da3565b60405180910390fd5b42600360003373ffffffffffffffffffffffffffffffffffffffff1673ffffffffffffffffffffffffffffffffffffffff1681526020019081526020016000208190555060016000808282546101fa9190610ea5565b9250508190555060026040518060800160405280846002811115610247577f4e487b7100000000000000000000000000000000000000000000000000000000600052602160045260246000fd5b81526020018381526020013373ffffffffffffffffffffffffffffffffffffffff16815260200142815250908060018154018082558091505060019003906000526020600020906004020160009091909190915060008201518160000160006101000a81548160ff021916908360028111156102ec577f4e487b7100000000000000000000000000000000000000000000000000000000600052602160045260246000fd5b0217905550602082015181600101908051906020019061030d92919061086e565b5060408201518160020160006101000a81548173ffffffffffffffffffffffffffffffffffffffff021916908373ffffffffffffffffffffffffffffffffffffffff1602179055506060820151816003015550503373ffffffffffffffffffffffffffffffffffffffff167f2d6873fdbcd96c625e1fafa3267b0aab6e37f9be7d7a32baf9f6875c5e2984448383426040516103ab93929190610d25565b60405180910390a26000606460015442446103c69190610ea5565b6103d09190610ea5565b6103da9190611001565b905080600181905550600080600281111561041e577f4e487b7100000000000000000000000000000000000000000000000000000000600052602160045260246000fd5b846002811115610457577f4e487b7100000000000000000000000000000000000000000000000000000000600052602160045260246000fd5b141580610465575060148351115b90508080156104745750602882105b15610576576000655af3107a40009050478111156104c7576040517f08c379a00000000000000000000000000000000000000000000000000000000081526004016104be90610d63565b60405180910390fd5b60003373ffffffffffffffffffffffffffffffffffffffff16826040516104ed90610ca2565b60006040518083038185875af1925050503d806000811461052a576040519150601f19603f3d011682016040523d82523d6000602084013e61052f565b606091505b5050905080610573576040517f08c379a000000000000000000000000000000000000000000000000000000000815260040161056a90610d83565b60405180910390fd5b50505b50505050565b6002818154811061058c57600080fd5b90600052602060002090600402016000915090508060000160009054906101000a900460ff16908060010180546105c290610f9e565b80601f01602080910402602001604051908101604052809291908181526020018280546105ee90610f9e565b801561063b5780601f106106105761010080835404028352916020019161063b565b820191906000526020600020905b81548152906001019060200180831161061e57829003601f168201915b5050505050908060020160009054906101000a900473ffffffffffffffffffffffffffffffffffffffff16908060030154905084565b6000600280549050905090565b60036020528060005260406000206000915090505481565b60606002805480602002602001604051908101604052809291908181526020016000905b8282101561086557838290600052602060002090600402016040518060800160405290816000820160009054906101000a900460ff166002811115610728577f4e487b7100000000000000000000000000000000000000000000000000000000600052602160045260246000fd5b6002811115610760577f4e487b7100000000000000000000000000000000000000000000000000000000600052602160045260246000fd5b815260200160018201805461077490610f9e565b80601f01602080910402602001604051908101604052809291908181526020018280546107a090610f9e565b80156107ed5780601f106107c2576101008083540402835291602001916107ed565b820191906000526020600020905b8154815290600101906020018083116107d057829003601f168201915b505050505081526020016002820160009054906101000a900473ffffffffffffffffffffffffffffffffffffffff1673ffffffffffffffffffffffffffffffffffffffff1673ffffffffffffffffffffffffffffffffffffffff168152602001600382015481525050815260200190600101906106ba565b50505050905090565b82805461087a90610f9e565b90600052602060002090601f01602090048101928261089c57600085556108e3565b82601f106108b557805160ff19168380011785556108e3565b828001600101855582156108e3579182015b828111156108e25782518255916020019190600101906108c7565b5b5090506108f091906108f4565b5090565b5b8082111561090d5760008160009055506001016108f5565b5090565b600061092461091f84610e03565b610dde565b90508281526020810184848401111561093c57600080fd5b610947848285610f5c565b509392505050565b60008135905061095e81611258565b92915050565b6000813590506109738161126f565b92915050565b600082601f83011261098a57600080fd5b813561099a848260208601610911565b91505092915050565b6000813590506109b28161127f565b92915050565b6000602082840312156109ca57600080fd5b60006109d88482850161094f565b91505092915050565b600080604083850312156109f457600080fd5b6000610a0285828601610964565b925050602083013567ffffffffffffffff811115610a1f57600080fd5b610a2b85828601610979565b9150509250929050565b600060208284031215610a4757600080fd5b6000610a55848285016109a3565b91505092915050565b6000610a6a8383610c21565b905092915050565b610a7b81610efb565b82525050565b610a8a81610efb565b82525050565b6000610a9b82610e44565b610aa58185610e67565b935083602082028501610ab785610e34565b8060005b85811015610af35784840389528151610ad48582610a5e565b9450610adf83610e5a565b925060208a01995050600181019050610abb565b50829750879550505050505092915050565b610b0e81610f4a565b82525050565b610b1d81610f4a565b82525050565b6000610b2e82610e4f565b610b388185610e83565b9350610b48818560208601610f6b565b610b518161111d565b840191505092915050565b6000610b6782610e4f565b610b718185610e94565b9350610b81818560208601610f6b565b610b8a8161111d565b840191505092915050565b6000610ba2602f83610e94565b9150610bad8261112e565b604082019050919050565b6000610bc5602783610e94565b9150610bd08261117d565b604082019050919050565b6000610be8604b83610e94565b9150610bf3826111cc565b606082019050919050565b6000610c0b600083610e78565b9150610c1682611241565b600082019050919050565b6000608083016000830151610c396000860182610b05565b5060208301518482036020860152610c518282610b23565b9150506040830151610c666040860182610a72565b506060830151610c796060860182610c84565b508091505092915050565b610c8d81610f40565b82525050565b610c9c81610f40565b82525050565b6000610cad82610bfe565b9150819050919050565b60006020820190508181036000830152610cd18184610a90565b905092915050565b6000608082019050610cee6000830187610b14565b8181036020830152610d008186610b5c565b9050610d0f6040830185610a81565b610d1c6060830184610c93565b95945050505050565b6000606082019050610d3a6000830186610b14565b8181036020830152610d4c8185610b5c565b9050610d5b6040830184610c93565b949350505050565b60006020820190508181036000830152610d7c81610b95565b9050919050565b60006020820190508181036000830152610d9c81610bb8565b9050919050565b60006020820190508181036000830152610dbc81610bdb565b9050919050565b6000602082019050610dd86000830184610c93565b92915050565b6000610de8610df9565b9050610df48282610fd0565b919050565b6000604051905090565b600067ffffffffffffffff821115610e1e57610e1d6110ee565b5b610e278261111d565b9050602081019050919050565b6000819050602082019050919050565b600081519050919050565b600081519050919050565b6000602082019050919050565b600082825260208201905092915050565b600081905092915050565b600082825260208201905092915050565b600082825260208201905092915050565b6000610eb082610f40565b9150610ebb83610f40565b9250827fffffffffffffffffffffffffffffffffffffffffffffffffffffffffffffffff03821115610ef057610eef611032565b5b828201905092915050565b6000610f0682610f20565b9050919050565b6000819050610f1b82611244565b919050565b600073ffffffffffffffffffffffffffffffffffffffff82169050919050565b6000819050919050565b6000610f5582610f0d565b9050919050565b82818337600083830152505050565b60005b83811015610f89578082015181840152602081019050610f6e565b83811115610f98576000848401525b50505050565b60006002820490506001821680610fb657607f821691505b60208210811415610fca57610fc96110bf565b5b50919050565b610fd98261111d565b810181811067ffffffffffffffff82111715610ff857610ff76110ee565b5b80604052505050565b600061100c82610f40565b915061101783610f40565b92508261102757611026611061565b5b828206905092915050565b7f4e487b7100000000000000000000000000000000000000000000000000000000600052601160045260246000fd5b7f4e487b7100000000000000000000000000000000000000000000000000000000600052601260045260246000fd5b7f4e487b7100000000000000000000000000000000000000000000000000000000600052602160045260246000fd5b7f4e487b7100000000000000000000000000000000000000000000000000000000600052602260045260246000fd5b7f4e487b7100000000000000000000000000000000000000000000000000000000600052604160045260246000fd5b6000601f19601f8301169050919050565b7f436f6e74726163742066756e64732061726520696e73756666696369656e742060008201527f746f206772616e74207072697a652e0000000000000000000000000000000000602082015250565b7f4661696c656420746f207769746864726177206d6f6e65792066726f6d20636f60008201527f6e74726163742e00000000000000000000000000000000000000000000000000602082015250565b7f57616974203135207365636f6e647320746f2073656e6420616e6f746865722060008201527f7761766520666f722074657374696e672e2057696c6c206265206368616e676560208201527f6420666f722070726f6421000000000000000000000000000000000000000000604082015250565b50565b6003811061125557611254611090565b5b50565b61126181610efb565b811461126c57600080fd5b50565b6003811061127c57600080fd5b50565b61128881610f40565b811461129357600080fd5b5056fea2646970667358221220a15c7ecf7a5cac04f13474a628c2d8a43f9ac7f81531c7fbae2222a90c285bd564736f6c63430008040033",
  "linkReferences": {},
  "deployedLinkReferences": {}
}